:020000040800F2
:100000000028002041110008610E0008690E000858
:10001000710E0008790E0008810E00080000000033
:10002000000000000000000000000000890E000831
:10003000950E000800000000A10E0008AD0E00089B
:100040008911000889110008891100088911000828
:100050008911000889110008891100088911000818
:100060008911000889110008891100088911000808
:1000700089110008891100088911000889110008F8
:1000800089110008891100088911000889110008E8
:1000900089110008891100088911000889110008D8
:1000A00089110008891100088911000889110008C8
:1000B000B90E00088911000800000000891100082D
:1000C00089110008000000000000000089110008EC
:1000D00000000000891100088911000800000000DC
:1000E000891100088911000889110008000000002A
:1000F0000000000000000000000000000000000000
:0C01000000000000000000005FF808F1A3
:10010C0010B5054C237833B9044B13B10448AFF345
:10011C0000800123237010BD280000200000000087
:10012C00C027000808B5034B1BB103490348AFF3C4
:10013C00008008BD000000002C000020C027000833
:10014C0080B582B000AF786039603B68002B03D07B
:10015C003B68012B0FD01FE07B68012B05D10022DF
:10016C0020210F4801F00FFB16E0012220210C4842
:10017C0001F009FB10E07B68012B06D100224FF443
:10018C008071074801F0FFFA05E001224FF48071FD
:10019C00034801F0F8FA00BF00BF0837BD4680BD28
:1001AC000008014080B582B000AF786039603B68D0
:1001BC00002B03D03B68012B0FD01DE07B68012B7B
:1001CC0005D1002208210E4801F0DDFA14E00122CD
:1001DC0008210B4801F0D7FA0EE07B68012B05D102
:1001EC0000224021064801F0CEFA04E00122402111
:1001FC00034801F0C8FA00BF00BF0837BD4680BDF8
:10020C000008014080B582B000AF786039603B686F
:10021C00002B03D03B68012B0FD01DE07B68012B1A
:10022C0005D1002210210E4801F0ADFA14E0012294
:10023C0010210B4801F0A7FA0EE07B68012B05D1C9
:10024C0000228021064801F09EFA04E00122802160
:10025C00034801F098FA00BF00BF0837BD4680BDC7
:10026C000008014080B584B000AF78607B68394AE3
:10027C0082FB03129210DB17D31AFB607A68354BA2
:10028C0083FB02139910D317C91A0B469B000B441E
:10029C005B00D31ABB60BB68DBB203F00103DBB2BB
:1002AC001A4601212C4801F06EFABB685B10DBB2D8
:1002BC0003F00103DBB21A460221274801F063FA6E
:1002CC00BB689B10DBB203F00103DBB21A460421BE
:1002DC00214801F058FABB68DB10DBB203F00103D4
:1002EC00DBB21A4608211C4801F04DFAFB68DBB260
:1002FC0003F00103DBB21A464FF48051174801F0AA
:10030C0042FAFB685B10DBB203F00103DBB21A4666
:10031C004FF40051114801F036FAFB689B10DBB228
:10032C0003F00103DBB21A464FF480410B4801F095
:10033C002AFAFB68DB10DBB203F00103DBB21A46CE
:10034C004FF40041054801F01EFA00BF1037BD46BE
:10035C0080BD00BF67666666000C01400008014066
:10036C0080B584B000AF78607B68394A82FB031299
:10037C009210DB17D31AFB607A68354B83FB0213A0
:10038C009910D317C91A0B469B000B445B00D31A68
:10039C00BB60FB68DBB203F00103DBB21A46102131
:1003AC002C4801F0F0F9FB685B10DBB203F00103A1
:1003BC00DBB21A462021274801F0E5F9FB689B10B7
:1003CC00DBB203F00103DBB21A464021214801F0F5
:1003DC00DAF9FB68DB10DBB203F00103DBB21A467F
:1003EC0080211C4801F0CFF9BB68DBB203F001039C
:1003FC00DBB21A464FF48071164801F0C4F9BB68A1
:10040C005B10DBB203F00103DBB21A464FF4007150
:10041C00104801F0B8F9BB689B10DBB203F0010384
:10042C00DBB21A464FF480610A4801F0ACF9BB68A4
:10043C00DB10DBB203F00103DBB21A464FF40061B0
:10044C00044801F0A0F900BF1037BD4680BD00BFC5
:10045C0067666666000C014080B582B000AF7860BC
:10046C007B68DBB203F00103DBB21A464FF4805118
:10047C00154801F088F97B685B10DBB203F00103CF
:10048C00DBB21A464FF400510F4801F07CF97B683F
:10049C009B10DBB203F00103DBB21A464FF4804130
:1004AC00094801F070F97B68DB10DBB203F0010343
:1004BC00DBB21A464FF40041034801F064F900BF67
:1004CC000837BD4680BD00BF000C014080B500AFB1
:1004DC00134B00221A70134B00221A70124B1B681C
:1004EC00124A82FB03129211DB17D31A104A1360C3
:1004FC00104B1B680D4A82FB03129211DB17D31AA7
:10050C000D4A13600B4B1B681946002000F0E2FBF0
:10051C004FF47A71022000F0DDFB00BF80BD00BFFC
:10052C00450000204400002000000020D34D621044
:10053C0054000020080000205800002080B582B034
:10054C0000AF00237B6027E07B68DBB2184600F02D
:10055C008DFA0346002B0ED17E4A7B681344197822
:10056C007D4A7B6813440A461A707A4A7B681344A6
:10057C0001221A700DE0774A7B6813441978764A89
:10058C007B6813440A461A70724A7B681344002233
:10059C001A707B6801337B607B68022BD4DD6F4B58
:1005AC001B78032B00F2DE8101A252F823F000BF6E
:1005BC00CD050008630600088D0700088D080008AB
:1005CC00022000F0A7FB0346012B0ED1644B1B68E5
:1005DC00013B634A1360634B1B68013B614A136028
:1005EC004FF47A71022000F075FB00F06FFC594B50
:1005FC001B78012B40F0B881574B1B78002B40F037
:10060C00B38100210020FFF7FDFD01210020FFF741
:10061C00F9FD00210020FFF7C5FD01210020FFF7A7
:10062C00C1FD00210020FFF78BFD01210020FFF709
:10063C0087FD4D4B1B684D4A82FB03129211DB1751
:10064C00D31A4B4A1360FA21012000F043FB434BB1
:10065C0001221A7088E1012000F05CFB0346012B9B
:10066C000BD10821434801F0A6F84021414801F084
:10067C00A2F8FA21012000F02DFB0220FFF7ECFE7E
:10068C003B4B1B681846FFF7EDFD394B1B681846B2
:10069C00FFF766FE2F4B5B78012B0FD12E4B5B784F
:1006AC00002B0BD1324B1B680133314A1360304B9A
:1006BC001B68632B02DD2E4B01221A60254B9B78A5
:1006CC00012B23D1244B9B78002B1FD1284B1B686B
:1006DC004FF47A7203FB02F2234B1B68D21A264B9F
:1006EC001B681344244A1360214B1B684FF47A7225
:1006FC0002FB03F31C4A136000210020FFF752FD9C
:10070C0001210020FFF74EFDFFF7E0FE114B1B7897
:10071C00012B40F02B81104B1B78002B40F02681D5
:10072C00164B1B68114A82FB03129211DB17D31A6A
:10073C000F4A136000210020FFF734FD0121002037
:10074C00FFF730FDFA21012000F0C4FA034B02221E
:10075C001A700BE14C0000204800002045000020DE
:10076C00540000205800002000000020D34D6210DF
:10077C005000002000080140080000200400002068
:10078C00012000F0C7FA0346012B0CD120217C4834
:10079C0001F011F84FF48071794801F00CF8FA214E
:1007AC00012000F097FA0320FFF756FE754B1B68EB
:1007BC001846FFF757FD734B1B681846FFF7D0FD23
:1007CC00714B5B78012B0FD1704B5B78002B0BD1ED
:1007DC006C4B1B6801336B4A13606A4B1B68632BB1
:1007EC0002DD684B01221A60674B9B78012B23D1E9
:1007FC00664B9B78002B1FD1624B1B684FF47A72AF
:10080C0003FB02F2624B1B68D21A624B1B68134447
:10081C00604A13605B4B1B684FF47A7202FB03F364
:10082C005B4A136000210020FFF78AFC01210020A5
:10083C00FFF786FCFFF74AFE534B1B78012B40F069
:10084C009780524B1B78002B40F09280524B1B68C8
:10085C00524A82FB03129211DB17D31A494A1360D6
:10086C0000210020FFF76CFC01210020FFF768FC41
:10087C00FA21012000F02EFA494B03221A7077E07E
:10088C00012000F047FA0346012B0BD110213C4804
:10089C0000F091FF80213A4800F08DFFFA210120F1
:1008AC0000F018FA0420FFF7D7FD364B1B681846EA
:1008BC00FFF7D8FC334B1B681846FFF751FD324B42
:1008CC005B78012B0FD1314B5B78002B0BD12D4B6F
:1008DC001B6801332B4A13602A4B1B68632B02DD08
:1008EC00284B01221A60284B9B78012B26D1274BD1
:1008FC009B78002B22D1234B1B684FF47A7203FB9D
:10090C0002F2254B1B68D21A224B1B681344214A56
:10091C0013601C4B1B684FF47A7202FB03F31E4AE4
:10092C0013601F4B00221A7000210020FFF76AFC95
:10093C0001210020FFF766FCFFF7C8FD124B1B7866
:10094C00012B17D1114B1B78002B13D1144B002208
:10095C001A7000210020FFF755FC01210020FFF741
:10096C0051FC07E000BF06E000BF04E000BF02E05E
:10097C0000BF00E000BF00BF0837BD4680BD00BF10
:10098C0000080140500000204C00002048000020CE
:10099C00040000200000002008000020D34D62104D
:1009AC004500002090B583B000AF0023FB7146E0FA
:1009BC00FA79FB792649895C264AD154FB79264A77
:1009CC0032F81330FC791946244800F0C5FE034672
:1009DC001A461F4B1A55FB791D4AD25CFB791D49EF
:1009EC00CB5C9A4205D1FA79FB791949895C1C4A8E
:1009FC00D154FB791A4AD35C002B14D1FB79194AD8
:100A0C0032F81330632B09D8FB79164A32F81320CD
:100A1C00013291B2134A22F813100DE0FB79124AFD
:100A2C000121D15408E0FB790E4A002122F8131061
:100A3C00FB790D4A0021D154FB790133FB71FB7911
:100A4C00022BB5D900BF00BF0C37BD4690BD00BF0F
:100A5C000C000020100000201400002000080140B1
:100A6C005C000020640000206000002080B483B093
:100A7C0000AF0346FB71FB79022B01D9002307E081
:100A8C00FB79064AD35C002B0CBF01230023DBB29D
:100A9C0018460C37BD4680BC704700BF5C00002078
:100AAC0080B500AF00F06CFB00F00EF800F094F88D
:100ABC0000F046F8034801F0C5FAFFF707FD00BF48
:100ACC00FDE700BF6C00002080B590B000AF07F1CF
:100ADC00180328220021184601F040FE3B1D00227D
:100AEC001A605A609A60DA601A610223BB610123B2
:100AFC00BB621023FB6200237B6307F118031846CB
:100B0C0000F072FE0346002B01D000F0DCF80F233E
:100B1C007B600023BB600023FB6000233B61002350
:100B2C007B613B1D0021184601F0E0F80346002BC9
:100B3C0001D000F0C8F800BF4037BD4680BD0000B2
:100B4C0080B586B000AF07F1080300221A605A6026
:100B5C009A60DA603B4600221A605A601D4B4FF0D7
:100B6C0080421A601B4B41F63F725A60194B0022AF
:100B7C009A60184B0922DA60164B00221A61154B49
:100B8C0000229A61134801F00DFA0346002B01D0A4
:100B9C0000F099F84FF48053BB6007F10803194635
:100BAC000C4801F08BFB0346002B01D000F08BF8B6
:100BBC0000233B6000237B603B461946054801F04F
:100BCC0063FD0346002B01D000F07DF800BF183701
:100BDC00BD4680BD6C00002080B586B000AF07F12B
:100BEC00080300221A605A609A60DA60294B9B69EC
:100BFC00284A43F004039361264B9B6903F00403DA
:100C0C007B607B68234B9B69224A43F0080393610A
:100C1C00204B9B6903F008033B603B6800224FF2BA
:100C2C00F8111D4800F0AFFD00224FF6FF711B4874
:100C3C0000F0A9FD4FF2F813BB600123FB60002309
:100C4C003B6102237B6107F108031946124800F04F
:100C5C0007FC4FF6FF73BB600123FB6000233B6175
:100C6C0002237B6107F1080319460C4800F0F8FBDE
:100C7C004FF46063BB600023FB6001233B6107F111
:100C8C0008031946044800F0EBFB00BF1837BD46BB
:100C9C0080BD00BF0010024000080140000C014064
:100CAC0080B582B000AF78607B681B68B3F1804F71
:100CBC0005D1FFF777FEFFF741FC00F045F800BFC8
:100CCC000837BD4680BD80B400AF72B600BF00BF10
:100CDC00FDE7000080B483B000AF786039603B68FA
:100CEC00094A82FB03129210DB17D21A07497B6860
:100CFC0041F82320064A7B68002142F8231000BFEC
:100D0C000C37BD4680BC704767666666B400002031
:100D1C00DC00002080B483B000AF7860094A7B68A7
:100D2C0052F82330012B06D1064A7B68002142F889
:100D3C002310012300E0002318460C37BD4680BC6D
:100D4C00704700BFDC00002080B483B000AF0023EC
:100D5C007B601CE0124A7B6852F82330002B13DDB9
:100D6C000F4A7B6852F823305A1E0D497B6841F8B4
:100D7C0023200B4A7B6852F82330002B04D1094AFC
:100D8C007B68012142F823107B6801337B607B6810
:100D9C00092BDFDD00BF00BF0C37BD4680BC7047A0
:100DAC00B4000020DC00002080B485B000AF154BEF
:100DBC009B69144A43F001039361124B9B6903F046
:100DCC000103BB60BB680F4BDB690E4A43F08053D9
:100DDC00D3610C4BDB6903F080537B607B680A4B5F
:100DEC005B68FB60FB6823F0E063FB60FB6843F02F
:100DFC008063FB60044AFB68536000BF1437BD4638
:100E0C0080BC7047001002400000014080B584B0E7
:100E1C0000AF78607B681B68B3F1804F13D10C4B2B
:100E2C00DB690B4A43F00103D361094BDB6903F027
:100E3C000103FB60FB68002200211C2000F0D9FAA2
:100E4C001C2000F0F2FA00BF1037BD4680BD00BF79
:100E5C000010024080B400AF00BFFDE780B400AFCB
:100E6C0000BFFDE780B400AF00BFFDE780B400AF6A
:100E7C0000BFFDE780B400AF00BFFDE780B400AF5A
:100E8C0000BFBD4680BC704780B400AF00BFBD46FC
:100E9C0080BC704780B400AF00BFBD4680BC7047BB
:100EAC0080B500AF00F0B2F900BF80BD80B500AFD7
:100EBC00024801F013F900BF80BD00BF6C00002098
:100ECC0080B400AF00BFBD4680BC704780B500AF9A
:100EDC000120FFF7C1FA904B1B78032B00F219810C
:100EEC0001A252F823F000BF050F00087F0F000885
:100EFC000D1000088510000800210120FFF752F9A1
:100F0C0001210120FFF77EF900210020FFF77AF97B
:100F1C0000210020FFF714F901210020FFF710F940
:100F2C0001210020FFF73EF97C4B1B681846FFF7A8
:100F3C0099F97B4B1B681846FFF712FA0020FFF754
:100F4C00E9FE0346012B40F0DD80734B01221A7041
:100F5C00744B1B68744A82FB03129211DB17D31A71
:100F6C006F4A13606F4B1B6819460020FFF7B2FEE7
:100F7C00C8E000210120FFF715F901210120FFF73E
:100F8C00DFF800210020FFF73DF900210020FFF7DA
:100F9C00D7F801210020FFF735F901210020FFF7D8
:100FAC0001F95E4B1B681846FFF75CF95C4B1B683C
:100FBC001846FFF7D5F90020FFF7ACFE0346012BCE
:100FCC0040F0A280544B02221A70584B1B68564AB0
:100FDC0082FB03129211DB17D31A504A1360544B45
:100FEC001B68514A82FB03129211DB17D31A4C4A2D
:100FFC0013604E4B1B6819460020FFF76BFE83E015
:10100C0001210120FFF7CEF800210120FFF7FAF8AB
:10101C0001210020FFF7F6F800210020FFF790F8DF
:10102C0001210020FFF78CF800210020FFF7BAF80F
:10103C003A4B1B681846FFF715F9394B1B681846D5
:10104C00FFF78EF90020FFF765FE0346012B5DD1FB
:10105C00314B03221A70334B1B68334A82FB031249
:10106C009211DB17D31A2D4A13602E4B1B681946AD
:10107C000020FFF72FFE49E000210120FFF760F868
:10108C0001210120FFF78EF801210020FFF7BAF8AB
:10109C0000210020FFF7B6F801210020FFF750F8DF
:1010AC0000210020FFF77EF81C4B1B681846FFF749
:1010BC00D9F81B4B1B681846FFF752F90020FFF7B5
:1010CC0029FE0346012B23D1134B00221A70184B17
:1010DC001B68154A82FB03129211DB17D31A0F4AB5
:1010EC001360124B1B68104A82FB03129211DB1720
:1010FC00D31A0B4A13600D4B1B6819460020FFF7DF
:10110C00E9FD05E000BF04E000BF02E000BF00E025
:10111C0000BF00BF80BD00BF440000205400002071
:10112C005800002004000020D34D6210080000205D
:10113C0000000020FFF7C4FE0B480C490C4A0023AA
:10114C0002E0D458C4500433C4188C42F9D3094A71
:10115C00094C002301E013600432A242FBD301F0DE
:10116C0005FBFFF79DFC70470000002028000020C5
:10117C00042800082800002008010020FEE70000D9
:10118C0080B500AF084B1B68074A43F0100313608F
:10119C00032000F023F90F2000F008F8FFF704FEFD
:1011AC000023184680BD00BF0020024080B582B0ED
:1011BC0000AF7860124B1A68124B1B7819464FF42B
:1011CC007A73B3FBF1F3B2FBF3F3184600F03BF97F
:1011DC000346002B01D001230EE07B680F2B0AD8AD
:1011EC00002279684FF0FF3000F003F9064A7B6863
:1011FC001360002300E0012318460837BD4680BD6C
:10120C001C000020240000202000002080B400AF2F
:10121C00054B1B781A46054B1B681344034A136095
:10122C0000BFBD4680BC7047240000200401002094
:10123C0080B400AF024B1B681846BD4680BC70479B
:10124C000401002080B485B000AF78607B6803F0A7
:10125C000703FB600C4BDB68BB60BA684FF6FF03FF
:10126C001340BB60FB681A02BB68134343F0BF63B7
:10127C0043F40033BB60044ABB68D36000BF14372F
:10128C00BD4680BC704700BF00ED00E080B400AFED
:10129C00044BDB681B0A03F007031846BD4680BCF1
:1012AC00704700BF00ED00E080B483B000AF034690
:1012BC00FB7197F90730002B0BDBFB7903F01F0256
:1012CC00064997F907305B09012000FA02F241F850
:1012DC00232000BF0C37BD4680BC704700E100E006
:1012EC0080B483B000AF03463960FB7197F90730C7
:1012FC00002B0ADB3B68DAB20C4997F90730120174
:10130C00D2B20B4483F800230AE03B68DAB20849F6
:10131C00FB7903F00F03043B1201D2B20B441A7693
:10132C0000BF0C37BD4680BC704700BF00E100E039
:10133C0000ED00E080B489B000AFF860B9607A606D
:10134C00FB6803F00703FB61FB69C3F10703042B84
:10135C0028BF0423BB61FB690433062B02D9FB694C
:10136C00033B00E000237B614FF0FF32BB6902FAC4
:10137C0003F3DA43BB681A407B699A404FF0FF31A4
:10138C007B6901FA03F3D9437B680B40134318467E
:10139C002437BD4680BC704780B582B000AF786002
:1013AC007B68013BB3F1807F01D301230FE00A4A34
:1013BC007B68013B53600F214FF0FF30FFF790FF2C
:1013CC00054B00229A60044B07221A600023184632
:1013DC000837BD4680BD00BF10E000E080B582B08C
:1013EC0000AF78607868FFF72DFF00BF0837BD4667
:1013FC0080BD80B586B000AF0346B9607A60FB73E0
:10140C0000237B61FFF742FF78617A68B9687869DD
:10141C00FFF790FF024697F90F3011461846FFF779
:10142C005FFF00BF1837BD4680BD80B582B000AFEE
:10143C000346FB7197F907301846FFF735FF00BFDD
:10144C000837BD4680BD80B582B000AF7860786843
:10145C00FFF7A2FF034618460837BD4680BD0000C3
:10146C0080B48BB000AF7860396000237B620023BE
:10147C003B6261E101227B6A02FA03F3FB613B6888
:10148C001B68FA691340BB61BA69FB699A4240F068
:10149C0050813B685B68974A93425ED0954A934271
:1014AC0075D8954A934258D0934A93426FD8934A31
:1014BC00934252D0914A934269D8914A93424CD06C
:1014CC008F4A934263D88F4A934246D08D4A9342B7
:1014DC005DD8122B2AD8122B59D801A252F823F01E
:1014EC0067150008411500085315000895150008EC
:1014FC009B1500089B1500089B1500089B15000800
:10150C009B1500089B1500089B1500089B150008EF
:10151C009B1500089B1500089B1500089B150008DF
:10152C009B150008491500085D150008764A934282
:10153C0013D02CE03B68DB683B6229E03B68DB683E
:10154C0004333B6224E03B68DB6808333B621FE0FA
:10155C003B68DB680C333B621AE03B689B68002BF2
:10156C0002D104233B6213E03B689B68012B05D13D
:10157C0008233B627B68FA691A6109E008233B6225
:10158C007B68FA695A6103E000233B6200E000BF0C
:10159C00BB69FF2B01D87B6801E07B6804337B615E
:1015AC00BB69FF2B02D87B6A9B0002E07B6A083B7D
:1015BC009B003B617B691A680F213B6901FA03F3BD
:1015CC00DB431A40396A3B6901FA03F31A437B691E
:1015DC001A603B685B6803F08053002B00F0A98015
:1015EC004A4B9B69494A43F001039361474B9B6902
:1015FC0003F00103BB60BB68454A7B6A9B0802335E
:10160C0052F82330FB607B6A03F003039B000F222C
:10161C0002FA03F3DB43FA681340FB607B683D4A34
:10162C0093420DD07B683C4A934207D07B683B4A7F
:10163C00934201D1022304E0032302E0012300E0E2
:10164C0000237A6A02F0030292009340FA68134373
:10165C00FB602F497B6A9B080233FA6841F8232010
:10166C003B685B6803F48013002B06D02C4B9A6804
:10167C002B49BB6913438B6006E0294B9A68BB6905
:10168C00DB43274913408B603B685B6803F4001312
:10169C00002B06D0224BDA682149BB691343CB607F
:1016AC0006E01F4BDA68BB69DB431D491340CB6076
:1016BC003B685B6803F40033002B06D0184B5A6868
:1016CC001749BB6913434B6006E0154B5A68BB695D
:1016DC00DB43134913404B603B685B6803F4803376
:1016EC00002B1FD00E4B1A680D49BB6913430B60BE
:1016FC001FE000BF0000321000003110000022106B
:10170C000000211000001210000011100010024007
:10171C000000014000080140000C01400010014095
:10172C00000401400B4B1A68BB69DB4309491340A9
:10173C000B607B6A01337B623B681A687B6A22FA16
:10174C0003F3002B7FF496AE00BF00BF2C37BD46D1
:10175C0080BC70470004014080B485B000AF786055
:10176C000B467B807B689A687B881340002B02D0E9
:10177C000123FB7301E00023FB73FB7B184614373A
:10178C00BD4680BC704780B483B000AF78600B4618
:10179C007B8013467B707B78002B03D07A887B6828
:1017AC001A6103E07B881A047B681A6100BF0C374E
:1017BC00BD4680BC704780B485B000AF78600B46E6
:1017CC007B807B68DB68FB607A88FB6813401A04BB
:1017DC00FB68D9437B880B401A437B681A6100BFB6
:1017EC001437BD4680BC704780B586B000AF7860BA
:1017FC007B68002B01D1012372E27B681B6803F02C
:10180C000103002B00F08780924B5B6803F00C0304
:10181C00042B0CD08F4B5B6803F00C03082B12D1FC
:10182C008C4B5B6803F48033B3F5803F0BD1894B51
:10183C001B6803F40033002B6CD07B685B68002BB7
:10184C0068D101234CE27B685B68B3F5803F06D11D
:10185C00804B1B687F4A43F4803313602EE07B6817
:10186C005B68002B0CD17B4B1B687A4A23F48033CA
:10187C001360784B1B68774A23F4802313601DE0B8
:10188C007B685B68B3F5A02F0CD1724B1B68714A57
:10189C0043F4802313606F4B1B686E4A43F4803310
:1018AC0013600BE06B4B1B686A4A23F480331360A4
:1018BC00684B1B68674A23F4802313607B685B6862
:1018CC00002B13D0FFF7B4FC386108E0FFF7B0FC35
:1018DC0002463B69D31A642B01D9032300E25D4B0A
:1018EC001B6803F40033002BF0D014E0FFF7A0FCCE
:1018FC00386108E0FFF79CFC02463B69D31A642B65
:10190C0001D90323ECE1534B1B6803F40033002B88
:10191C00F0D100E000BF7B681B6803F00203002BD2
:10192C0063D04C4B5B6803F00C03002B0BD0494B82
:10193C005B6803F00C03082B1CD1464B5B6803F46B
:10194C008033002B16D1434B1B6803F00203002B92
:10195C0005D07B681B69012B01D00123C0E13D4BF5
:10196C001B6823F0F8027B685B69DB003949134381
:10197C000B603AE07B681B69002B20D0364B0122B0
:10198C001A60FFF755FC386108E0FFF751FC02467E
:10199C003B69D31A022B01D90323A1E12D4B1B6800
:1019AC0003F00203002BF0D02A4B1B6823F0F80243
:1019BC007B685B69DB00274913430B6015E0264B02
:1019CC0000221A60FFF734FC386108E0FFF730FCA6
:1019DC0002463B69D31A022B01D9032380E11D4B2C
:1019EC001B6803F00203002BF0D17B681B6803F02B
:1019FC000803002B3AD07B689B69002B19D0174B3E
:101A0C0001221A60FFF714FC386108E0FFF710FCA4
:101A1C0002463B69D31A022B01D9032360E10D4B1B
:101A2C005B6A03F00203002BF0D0012000F09CFA5B
:101A3C001CE00A4B00221A60FFF7FAFB38610FE03A
:101A4C00FFF7F6FB02463B69D31A022B08D9032396
:101A5C0046E100BF001002400000424280044242B6
:101A6C00924B5B6A03F00203002BE9D17B681B6885
:101A7C0003F00403002B00F0A6800023FB758B4BB6
:101A8C00DB6903F08053002B0DD1884BDB69874A4F
:101A9C0043F08053D361854BDB6903F08053BB600B
:101AAC00BB680123FB75824B1B6803F48073002B0E
:101ABC0018D17F4B1B687E4A43F480731360FFF789
:101ACC00B7FB386108E0FFF7B3FB02463B69D31A5A
:101ADC00642B01D9032303E1754B1B6803F480735A
:101AEC00002BF0D07B68DB68012B06D16F4B1B6A97
:101AFC006E4A43F0010313622DE07B68DB68002B18
:101B0C000CD16A4B1B6A694A23F001031362674BC1
:101B1C001B6A664A23F0040313621CE07B68DB68D3
:101B2C00052B0CD1614B1B6A604A43F00403136212
:101B3C005E4B1B6A5D4A43F0010313620BE05B4B87
:101B4C001B6A5A4A23F001031362584B1B6A574A0B
:101B5C0023F0040313627B68DB68002B15D0FFF7BE
:101B6C0067FB38610AE0FFF763FB02463B69D31A57
:101B7C0041F28832934201D90323B1E04B4B1B6AEB
:101B8C0003F00203002BEED014E0FFF751FB386199
:101B9C000AE0FFF74DFB02463B69D31A41F288324B
:101BAC00934201D903239BE0404B1B6A03F00203D1
:101BBC00002BEED1FB7D012B05D13C4BDB693B4A65
:101BCC0023F08053D3617B68DB69002B00F08780A6
:101BDC00364B5B6803F00C03082B61D07B68DB6928
:101BEC00022B46D1334B00221A60FFF721FB3861E0
:101BFC0008E0FFF71DFB02463B69D31A022B01D903
:101C0C0003236DE0294B1B6803F00073002BF0D10C
:101C1C007B681B6AB3F5803F08D1244B5B6823F4C7
:101C2C0000327B689B68214913434B601F4B5B68F8
:101C3C0023F474127B68196A7B685B6A0B431B493B
:101C4C0013434B601B4B01221A60FFF7F1FA38610A
:101C5C0008E0FFF7EDFA02463B69D31A022B01D9D3
:101C6C0003233DE0114B1B6803F00073002BF0D0F5
:101C7C0035E0104B00221A60FFF7DAFA386108E001
:101C8C00FFF7D6FA02463B69D31A022B01D903237C
:101C9C0026E0064B1B6803F00073002BF0D11EE00E
:101CAC007B68DB69012B07D1012319E0001002408E
:101CBC0000700040600042420B4B5B68FB60FB68AD
:101CCC0003F480327B681B6A9A4206D1FB6803F4EA
:101CDC0070127B685B6A9A4201D0012300E00023FA
:101CEC0018461837BD4680BD0010024080B584B040
:101CFC0000AF786039607B68002B01D10123D0E004
:101D0C006A4B1B6803F007033A689A4210D9674B79
:101D1C001B6823F0070265493B6813430B60634B58
:101D2C001B6803F007033A689A4201D00123B8E01C
:101D3C007B681B6803F00203002B20D07B681B68B8
:101D4C0003F00403002B05D0594B5B68584A43F44D
:101D5C00E06353607B681B6803F00803002B05D01D
:101D6C00534B5B68524A43F460535360504B5B686F
:101D7C0023F0F0027B689B684D4913434B607B68F2
:101D8C001B6803F00103002B40D07B685B68012BC0
:101D9C0007D1474B1B6803F40033002B15D10123EB
:101DAC007FE07B685B68022B07D1414B1B6803F01B
:101DBC000073002B09D1012373E03D4B1B6803F02A
:101DCC000203002B01D101236BE0394B5B6823F03C
:101DDC0003027B685B68364913434B60FFF728FAB4
:101DEC00F8600AE0FFF724FA0246FB68D31A41F2C6
:101DFC008832934201D9032353E02D4B5B6803F0E7
:101E0C000C027B685B689B009A42EBD1274B1B68EA
:101E1C0003F007033A689A4210D2244B1B6823F054
:101E2C00070222493B6813430B60204B1B6803F0ED
:101E3C0007033A689A4201D0012332E07B681B68A1
:101E4C0003F00403002B08D0194B5B6823F4E06209
:101E5C007B68DB68164913434B607B681B6803F097
:101E6C000803002B09D0124B5B6823F460527B688B
:101E7C001B69DB000E4913434B6000F021F802464E
:101E8C000B4B5B681B0903F00F030A49CB5C22FA6E
:101E9C0003F3094A1360094B1B681846FFF786F9D0
:101EAC00002318461037BD4680BD00BF00200240FD
:101EBC0000100240D82700081C0000202000002041
:101ECC0080B487B000AF0023FB600023BB6000230D
:101EDC007B6100237B6000233B611E4B5B68FB60D6
:101EEC00FB6803F00C03042B02D0082B03D027E073
:101EFC00194B3B6127E0FB689B0C03F00F03174A5F
:101F0C00D35C7B60FB6803F48033002B10D0114B47
:101F1C005B685B0C03F00103114AD35CBB607B680C
:101F2C000D4A03FB02F2BB68B2FBF3F37B6104E0E6
:101F3C007B680C4A02FB03F37B617B693B6102E02B
:101F4C00054B3B6100BF3B6918461C37BD4680BC46
:101F5C00704700BF0010024000127A00E82700080A
:101F6C00F827000800093D0080B485B000AF786008
:101F7C000A4B1B680A4AA2FB03235B0A7A6802FB22
:101F8C0003F3FB6000BFFB685A1EFA60002BF9D10B
:101F9C0000BF00BF1437BD4680BC70471C0000203A
:101FAC00D34D621080B582B000AF78607B68002B97
:101FBC0001D1012341E07B6893F83D30DBB2002B6B
:101FCC0006D17B68002283F83C207868FEF71EFF60
:101FDC007B68022283F83D207B681A687B68043397
:101FEC001946104600F056FA7B68012283F8462009
:101FFC007B68012283F83E207B68012283F83F2016
:10200C007B68012283F840207B68012283F8412001
:10201C007B68012283F842207B68012283F84320ED
:10202C007B68012283F844207B68012283F84520D9
:10203C007B68012283F83D20002318460837BD46F3
:10204C0080BD000080B485B000AF78607B6893F8E9
:10205C003D30DBB2012B01D0012335E07B6802223D
:10206C0083F83D207B681B68DA687B681B6842F04C
:10207C000102DA607B681B68164A934209D07B68C0
:10208C001B68B3F1804F04D07B681B68124A9342E3
:10209C0011D17B681B689B6803F00703FB60FB682E
:1020AC00062B10D07B681B681A687B681B6842F093
:1020BC0001021A6007E07B681B681A687B681B6862
:1020CC0042F001021A60002318461437BD4680BC4A
:1020DC00704700BF002C01400004004080B584B064
:1020EC0000AF78607B681B68DB68FB607B681B68F3
:1020FC001B69BB60BB6803F00203002B20D0FB689C
:10210C0003F00203002B1BD07B681B686FF00202EC
:10211C001A617B6801221A777B681B689B6903F044
:10212C000303002B03D0786800F098F905E0786879
:10213C0000F08BF9786800F09AF97B6800221A7726
:10214C00BB6803F00403002B20D0FB6803F00403EE
:10215C00002B1BD07B681B686FF004021A617B6834
:10216C0002221A777B681B689B6903F44073002B6F
:10217C0003D0786800F072F905E0786800F065F932
:10218C00786800F074F97B6800221A77BB6803F05A
:10219C000803002B20D0FB6803F00803002B1BD096
:1021AC007B681B686FF008021A617B6804221A773F
:1021BC007B681B68DB6903F00303002B03D0786892
:1021CC0000F04CF905E0786800F03FF9786800F011
:1021DC004EF97B6800221A77BB6803F01003002BC2
:1021EC0020D0FB6803F01003002B1BD07B681B680E
:1021FC006FF010021A617B6808221A777B681B68E3
:10220C00DB6903F44073002B03D0786800F026F9E7
:10221C0005E0786800F019F9786800F028F97B6817
:10222C0000221A77BB6803F00103002B0CD0FB686B
:10223C0003F00103002B07D07B681B686FF00102D1
:10224C001A617868FEF72CFDBB6803F08003002B45
:10225C000CD0FB6803F08003002B07D07B681B6855
:10226C006FF080021A61786800F06FFABB6803F0B7
:10227C004003002B0CD0FB6803F04003002B07D06D
:10228C007B681B686FF040021A61786800F0F8F800
:10229C00BB6803F02003002B0CD0FB6803F0200379
:1022AC00002B07D07B681B686FF020021A617868DE
:1022BC0000F042FA00BF1037BD4680BD80B584B037
:1022CC0000AF786039600023FB737B6893F83C3077
:1022DC00012B01D10223B4E07B68012283F83C205E
:1022EC007B68022283F83D207B681B689B68BB607F
:1022FC00BB6823F07703BB60BB6823F47F43BB60F0
:10230C007B681B68BA689A603B681B68B3F5005F12
:10231C003ED0B3F5005F00F28780B3F5805F00F02C
:10232C008680B3F5805F7FD8702B1AD0702B7BD84A
:10233C00602B50D0602B77D8502B3CD0502B73D8BF
:10234C00402B58D0402B6FD8302B64D0302B6BD80F
:10235C00202B60D0202B67D8002B5CD0102B5AD0B0
:10236C0062E07B6818683B6899683B685A683B6810
:10237C00DB6800F06AF97B681B689B68BB60BB6814
:10238C0043F07703BB607B681B68BA689A604FE0C8
:10239C007B6818683B6899683B685A683B68DB68DF
:1023AC0000F053F97B681B689A687B681B6842F4E1
:1023BC0080429A603CE07B6818683B6859683B68CF
:1023CC00DB681A4600F0CAF87B681B685021184677
:1023DC0000F021F92CE07B6818683B6859683B6871
:1023EC00DB681A4600F0E8F87B681B686021184629
:1023FC0000F011F91CE07B6818683B6859683B6871
:10240C00DB681A4600F0AAF87B681B684021184666
:10241C0000F001F90CE07B681A683B681B681946F0
:10242C00104600F0F8F803E00123FB7300E000BF56
:10243C007B68012283F83D207B68002283F83C20D6
:10244C00FB7B18461037BD4680BD80B483B000AF0F
:10245C00786000BF0C37BD4680BC704780B483B039
:10246C0000AF786000BF0C37BD4680BC704780B4AD
:10247C0083B000AF786000BF0C37BD4680BC70479E
:10248C0080B483B000AF786000BF0C37BD4680BC11
:10249C007047000080B485B000AF786039607B680D
:1024AC001B68FB607B682B4A934207D07B68B3F1B7
:1024BC00804F03D07B68284A934208D1FB6823F0F5
:1024CC007003FB603B685B68FA681343FB607B68D6
:1024DC00204A934207D07B68B3F1804F03D07B68CE
:1024EC001D4A934208D1FB6823F44073FB603B68A0
:1024FC00DB68FA681343FB60FB6823F080023B68DF
:10250C005B691343FB607B68FA681A603B689A68E6
:10251C007B68DA623B681A687B689A627B680D4A52
:10252C00934203D13B681A697B681A637B6801226A
:10253C005A617B681B6903F00103002B05D07B6893
:10254C001B6923F001027B681A6100BF1437BD467A
:10255C0080BC7047002C01400004004080B487B060
:10256C0000AFF860B9607A60FB681B6A7B61FB683E
:10257C001B6A23F00102FB681A62FB689B693B61D2
:10258C003B6923F0F0033B617B681B013A69134301
:10259C003B617B6923F00A037B617A69BB68134357
:1025AC007B61FB683A699A61FB687A691A6200BFC1
:1025BC001C37BD4680BC704780B487B000AFF86054
:1025CC00B9607A60FB681B6A7B61FB681B6A23F04D
:1025DC001002FB681A62FB689B693B613B6923F440
:1025EC0070433B617B681B033A6913433B617B6916
:1025FC0023F0A0037B61BB681B017A6913437B61E9
:10260C00FB683A699A61FB687A691A6200BF1C37E9
:10261C00BD4680BC704780B485B000AF786039602F
:10262C007B689B68FB60FB6823F07003FB603A6877
:10263C00FB68134343F00703FB607B68FA689A60FE
:10264C0000BF1437BD4680BC704780B487B000AF64
:10265C00F860B9607A603B60FB689B687B617B6962
:10266C0023F47F437B613B681A027B681A43BB6887
:10267C0013437A6913437B61FB687A699A6000BFE4
:10268C001C37BD4680BC704780B485B000AF786005
:10269C0039607B6893F83C30012B01D1022341E077
:1026AC007B68012283F83C207B68022283F83D2062
:1026BC007B681B685B68FB607B681B689B68BB6006
:1026CC00FB6823F07003FB603B681B68FA681343DC
:1026DC00FB607B681B68FA685A607B681B68144A4D
:1026EC00934209D07B681B68B3F1804F04D07B68A0
:1026FC001B68104A93420CD1BB6823F08003BB606B
:10270C003B685B68BA681343BB607B681B68BA683C
:10271C009A607B68012283F83D207B68002283F855
:10272C003C20002318461437BD4680BC704700BFC0
:10273C00002C01400004004080B483B000AF7860EE
:10274C0000BF0C37BD4680BC704780B483B000AF6F
:10275C00786000BF0C37BD4680BC7047034602440E
:10276C00934200D1704703F8011BF9E770B50026BE
:10277C000C4D0D4C641BA410A64209D100F01AF8A4
:10278C0000260A4D0A4C641BA410A64205D170BD4C
:10279C0055F8043B98470136EEE755F8043B98474B
:1027AC000136F2E7FC270008FC270008FC2700088C
:1027BC0000280008F8B500BFF8BC08BC9E4670475E
:0C27CC00F8B500BFF8BC08BC9E46704782
:1027D80000000000000000000102030406070809C9
:1027E80002030405060708090A0B0C0D0E0F10104A
:0427F80001020000DA
:0427FC00310100089F
:042800000D010008BE
:1028040088130000D0070000B80B0000010100008D
:1028140001010000000200040008000000127A0018
:0828240010000000010000009B
:04000005080011419D
:00000001FF
